:040000000128F22FB2
:100C840020009717080020001B14080016302100CC
:100C940097000800012774264826A726B8268B2625
:100CA4005526692608002000970143309800FF303C
:100CB400960095019012422608002000003095000D
:100CC4008E19602E1508053C0318622E08000830A2
:100CD40023009F0090309D0004309E00FF309B0055
:100CE4009C0108001030320099009B019D010430E2
:100CF4009F009E011C1808007C2E78083100920089
:100D0400770891001517151400000000310013082E
:100D1400080020009B01C0309C009A0199011A0828
:100D2400F1001908F0001110452608004C26053082
:100D3400FD000F30FC00F130890B9E2EFC0B9E2E23
:100D4400FD0B9E2E00009727A52E04303E00910037
:100D54009201013093000230940003309500960113
:100D64009701980180309900900108003E009B0192
:100D74009C0101309D0002309E0003309F00223010
:100D8400A0000830A100A201A30180309A0008004D
:100D94000830F7007708F5002000003099009A0029
:100DA4008E1DD22E8E19D42E1908323C031CDC2E33
:100DB4000030DD2E01302000F635F6042000F50B5E
:100DC400CF2E7608080000308B1B0130FA0078081B
:100DD40031009200770891007908930015171515D2
:100DE4008B1355309600AA30960095149518F82E5A
:100DF40015117A0C031C8B1303188B17080022009F
:100E04008C018E01313021008C001C308E002300B7
:100E14008E018C01083024008C0010308E002500D7
:100E24008C018E0100308B1B0130F7008B13553081
:100E34003C008F00AA308F000F103D002108E039DC
:100E44001438A1003C002908E0390438A90024081A
:100E5400E0391438A4001308E03913389300E03063
:100E6400A8052A08E0391238AA002B08E0391338FB
:100E7400AB003D002508E0390538A50055303C009D
:100E84008F00AA308F000F14771C4A2F8B1708008D
:100E94008B130800F8000830F7007708F50078088D
:100EA400F7007708F60020008E1D562F00309500BD
:100EB4001508C93C03185A2F003095001508CA3C80
:100EC4000318602F8E1121008E1120000030950030
:100ED4001508C83C03186A2F8E152000F61F812FB1
:100EE4002000003095001508A03C0318752F8E11C2
:100EF4000030950015088C3C03187C2F8F2F2000A0
:100F0400003095001508503C0318842F8E110030D2
:100F140095001508DC3C03188B2F2000F6352000C3
:100F2400F50B6E2F21008E1508005F26CA26FB00E4
:100F34007B08F400CA26FB007B08F300CA26FB00EA
:100F44007B08F20056307406031D0800E02F0430BD
:100F54004C2708007208003E2000A000F03003185F
:100F6400F130A10072084C27080020002108F80085
:100F74002008F7007208FB007B08F900E526200032
:100F84002108F8002008F7007F264C270800720883
:100F9400003EF700F0300318F130F8007F264C27AC
:100FA4000800721CD82F20000E14DA2F20000E1017
:100FB40072084C27080000304C2708007308013AD7
:100FC4000319A92F033A0319AC2F013A0319B72FB8
:100FD400073A0319C92F013A0319D32FDD2F08004B
:100FE400F001F101F201F301F401F501F601200031
:0C0FF400A001A101A201A3012000982E81
:020000040001F9
:08000E009EFFF2FFFFDFFFFF80
:00000001FF
