:040000000128F22FB2
:100C960020009717080020001B14080016302100BA
:100CA60097000800A3277D265126B026C126942644
:100CB6005E26722608002000970143309800FF3018
:100CC6009600950190124B260800200000309500F2
:100CD6008E19692E1508053C03186B2E080008307E
:100CE60023009F0090309D0004309E00FF309B0043
:100CF6009C0108001030320099009B019D010430D0
:100D06009F009E011C180800852E7808310092006D
:100D1600770891001517151400000000310013081C
:100D2600080020009B01C0309C009A0199011A0816
:100D3600F1001908F00011104E260800552605305E
:100D4600FD000F30FC00F130890BA72EFC0BA72EFF
:100D5600FD0BA72E00005527AE2E04303E00910055
:100D66009201013093000230940003309500960101
:100D76009701980180309900900108003E009B0180
:100D86009C0101309D0002309E0003309F002230FE
:100D9600A0000830A100A201A30180309A0008003B
:100DA6000830F7007708F5002000003099009A0017
:100DB6008E1DDB2E8E19DD2E1908323C031CE52E06
:100DC6000030E62E01302000F635F6042000F50B43
:100DD600D82E7608080000308B1B0130FA00780800
:100DE60031009200770891007908930015171515C0
:100DF6008B1355309600AA30960095149518012F3E
:100E060015117A0C031C8B1303188B170800F800B6
:100E16000830F7007708F5007808F7007708F6003D
:100E260020008E1D142F003095001508C93C0318AC
:100E3600182F003095001508CA3C03181E2F8E1176
:100E460021008E112000003095001508C83C0318BB
:100E5600282F8E152000F61F3F2F2000003095000A
:100E66001508A03C0318332F8E1100309500150885
:100E76008C3C03183A2F4D2F2000003095001508A2
:100E8600503C0318422F8E11003095001508DC3CAB
:100E96000318492F2000F6352000F50B2C2F2100D2
:100EA6008E1508006826D326FB007B08F400D3269F
:100EB600FB007B08F300D326FB007B08F2005630CC
:100EC6007406031D0800942F04300A2708007208D0
:100ED600003E2000A000F0300318F130A100720897
:100EE6000A27080020002108F8002008F7007208E9
:100EF600FB007B08F900EE2620002108F8002008F8
:100F0600F70088260A2708007208003EF700F0302E
:100F16000318F130F80088260A27080000300A274F
:100F260008007308013A0319672F033A03196A2F59
:100F3600013A0319752F073A0319872F912F0800D5
:100F460022008C018E01313021008C001C308E0075
:100F560023008E018C0124008C018E0125008C015A
:100F66008E0100308B1B0130F7008B1355303C008F
:100F76008F00AA308F000F103D002108E039143889
:100F8600A1003C002908E0390438A9002408E0390A
:100F96001438A4001308E039133893003D002008E4
:100FA600E0390438A000E0303C00A8052A08E03902
:100FB6001238AA002B08E0391338AB003D0025088B
:100FC600E0390538A50055303C008F00AA308F0067
:100FD6000F14771CF02F8B1708008B130800F001F5
:100FE600F101F201F301F401F501F6012000A0017F
:0A0FF600A101A201A3012000A12E19
:020000040001F9
:08000E009EFFF2FFFFDFFFFF80
:00000001FF
