:040000000128FE2FA6
:100EF80082277D2F1630210097000800BF279427EE
:100F08007E27AF279F2789270800083023009F00E6
:100F180090309D0004309E00FF309B009C0108002B
:100F28001030320099009B019D0103309F009E0103
:100F38001C1808009C2F02303E00910092010130DD
:100F48009300940195010A30960097019801990140
:100F580080309000080002303E009B0002309C0068
:100F68009D019E019F010230A000A101A201A301E1
:100F780080309A00080022008C018E013730210051
:100F88008C0010308E0023008E018C0124008C010F
:100F98008E0125008C018E0100308B1B0130F00082
:100FA8008B1355303C008F00AA308F000F10E030B3
:100FB800A9052408E0391438A4002808E0390238C3
:100FC800A8002A08E0390138AA003D002308E039C2
:100FD8000538A3002508E0390438A50055303C0041
:100FE8008F00AA308F000F14701CFC2F8B1708007D
:080FF8008B13080020007C2F80
:020000040001F9
:08000E009EFFF2FFFFFFFFFF60
:00000001FF
