:040000000128FE2FA6
:100EEC007C27772F1630210097000800BB278E2710
:100EFC0078279927A92783270800083023009F000B
:100F0C0090309D0004309E00FF309B009C01080037
:100F1C001030320099009B019D0103309F009E010F
:100F2C001C180800962F02303E009B0001309C00DC
:100F3C009D019E019F010230A000A101A201A3010D
:100F4C0080309A0008003E0091019201023093001B
:100F5C0003309400033095000A309600203097003F
:100F6C009801990180309000080022008C018E01BC
:100F7C00373021008C0010308E0023008E018C0144
:100F8C0024008C018E0125008C018E0100308B1BFE
:100F9C000130F0008B1355303C008F00AA308F00CD
:100FAC000F102908E0390138A9002408E039143859
:100FBC00A400E030A8052A08E0390238AA002B0862
:100FCC00E0390438AB003D002308E0390538A300B4
:100FDC002508E0390438A50055303C008F00AA30B4
:100FEC008F000F14701CFC2F8B1708008B1308003C
:040FFC002000762F2C
:020000040001F9
:08000E009EFFF2FFFFFFFFFF60
:00000001FF
