:040000000128FE2FA6
:100EE4007827732F1630210097000800B9278A2726
:100EF4007427A72795277F270800083023009F0021
:100F040090309D0004309E00FF309B009C0108003F
:100F14001030320099009B019D0103309F009E0117
:100F24001C180800922F04303E00910092010130F9
:100F340093000230940003309500960197019801C4
:100F4400803099008030900008003E009B019C0195
:100F540001309D0002309E0003309F002230A0002B
:100F64000830A100A201A30180309A0008002200E9
:100F74008C018E01313021008C001C308E00230046
:100F84008E018C0124008C018E0125008C018E01C0
:100F940000308B1B0130F0008B1355303C008F0068
:100FA400AA308F000F102908E0390438A90024085A
:100FB400E0391438A4003D002008E0390438A000CA
:100FC400E0303C00A8052A08E0391238AA002B08B2
:100FD400E0391338AB003D002508E0390538A50099
:100FE40055303C008F00AA308F000F14701CFC2F6A
:0C0FF4008B1708008B1308002000722FE0
:020000040001F9
:08000E009EFFF2FFFFFFFFFF60
:00000001FF
