:020000001528C1
:100008007E14803120007F08F1002100901E102806
:100018002000901E1028EC2171082000FF007E109F
:1000280009001628F701F801F901FA01FB0120007F
:10003800A001A101A201A301A401A501A6017E10AE
:10004800200089290E224221F6007608FA00770856
:10005800031D08004221F6007608F9007708031D01
:1000680008004221F6007608F8007708031D08000A
:1000780056307A06031D080096280430AB20080085
:100088007808003E2000A000F0300318F130A100ED
:100098007808AB20080020002108F3002008F200AF
:1000A8007808F6007608F4006D2120002108F30096
:1000B8002008F200E021AB2008007808003EF2009A
:1000C800F0300318F130F300E021AB200800781C71
:1000D800702820000E14722820000E10F81C7628B4
:1000E8000C1577280C11781D7B288E147C288E100F
:1000F800F81D80288C1481288C107808AB20080003
:10010800780803198C283E009B010830A10090282C
:1001180002303E009B00A1017808AB2008000030A7
:10012800AB2008007908013A03194128033A03195A
:100138004428013A03194F28073A03196128013A5C
:1001480003196B28033A0319842893280800F3003D
:100158000830F20072082000A6007308F200720846
:10016800FB0020008E1DB628003095001508C93CFC
:100178000318BA28003095001508CA3C0318C0288F
:100188008E1121008E112000003095001508C83C02
:100198000318CA288E152000FB1FE1282000003014
:1001A80095001508A03C0318D5288E11003095003D
:1001B80015088C3C0318DC28EF2820000030950037
:1001C8001508503C0318E4288E11003095001508D6
:1001D800DC3C0318EB282000FB352000A60BCE28BA
:1001E80021008E15080022008C018E01313021007B
:1001F8008C001C308E0023008E018C0108302400F6
:100208008C0010308E0025008C018E0100308B1B75
:100218000130F2008B1355303C008F00AA308F005C
:100228000F103D002108E0391438A1003C002908CE
:10023800E0390438A9002408E0391438A400130868
:10024800E03913389300E030A8052A08E03912385D
:10025800AA002B08E0391338AB003D002508E03927
:100268000538A50055303C008F00AA308F000F14C8
:10027800721C40298B1708008B130800F701200017
:1002880095010830F2007208A600200000309500A1
:1002980099009A00200077186A2920008E1D4E299F
:1002A800200000309500200077186A2920008E1958
:1002B80057291908323C031C63290030642901308E
:1002C8002000FB35FB042000A60B4A2920007B08F0
:1002D800080000308B1B0130F500730831009200D4
:1002E8007208910074089300151715158B13553073
:1002F8009600AA3096009514951880291511750C4A
:10030800031C8B1303188B17080027302000A70045
:100318000230A80018228B170B1705302000AA00FE
:100328000F30A900F130890B9729A90B9729AA0B3F
:10033800972926209D2902303E009B009C01013010
:100348009D0002309E0003309F002230A000A101D2
:10035800A201A30180309A000800200097014330D1
:100368009800FF30960095019012210090163630C3
:10037800F2000230F30021223322080004303E004C
:1003880091009201013093000230940003309500EF
:10039800960197019801803099009001080020008B
:1003A8009B01C0309C009A0199011A08A500190800
:1003B800A40011103022080073083100920072085E
:1003C80091001517151400000000310013080800EB
:1003D80020009012270828040319080028088A001A
:1003E80027080A00813108001030320099009B016B
:1003F8009D0104309F009E011C180800002A083047
:1004080023009F0090309D0004309E00FF309B0029
:100418009C0108002000003095008E190F2A15084D
:10042800053C0318112A0800F720F8212C22C221C4
:100438009F21D321B1210322080073082000A800BE
:100448007208A70008000130F0007008F7000800E3
:10045800163021009700080020001B140800200017
:06046800971708000800D0
:020000040001F9
:08000E009EFFF2FFFFDFFFFF80
:00000001FF
