:04000000C8EF3FF016
:107F90000001E6EF3FF0016EACA2FED701C0ADFFDD
:107FA000120005D0ABA203D0AB92AB98AB889EAACF
:107FB000F9D7AE501200AC98AC9CAC8AAB9CAB88A5
:107FC000AB8EB886AC84070EAF6E1200D388D38A0E
:107FD000D38C000E0F015B6F000E0F015D6F000E62
:107FE000C26E826892689368BF0E946E9568DBECEF
:107FF0003FF0D1EC3FF0026E0228CBEC3FF0F9D716
:020000040020DA
:08000000FFFFFFFFFFFFFFFF00
:020000040030CA
:0E00000000295F3CFF5185FF0FC00FE00F404D
:00000001FF
