:0400000059EF00F0C4
:100008002E82FACF01F0FBCF02F0E9CF03F0EACF5E
:1000180004F0E1CF05F0E2CF06F0D9CF07F0DACF50
:1000280008F0F3CF09F0F4CF0AF0F6CF0BF0F7CFD2
:100038000CF0F8CF0DF0F5CF0EF0ABA203D0AB92D9
:10004800AB98AB889EAA13D0000E1F24D96E020E5F
:100058002020DA6EAECFDFFF1F4A202A040E2018B8
:100068001F10D8A404D0000E206E000E1F6E0EC004
:10007800F5FF0DC0F8FF0CC0F7FF0BC0F6FF0AC074
:10008800F4FF09C0F3FF08C0DAFF07C0D9FF06C0B4
:10009800E2FF05C0E1FF04C0EAFF03C0E9FF02C0B8
:0E00A800FBFF01C0FAFF2E92110046EF06F09A
:1008000000303132333435363738396162636465EC
:030810006600007F
:100814001A6EDCD13C0E1A18D8A41200010E2B6EED
:10082400000E286E12001A50281A020E2B6E720E39
:100834001A18D8A403D0000E266E1200770E1A18C8
:10084400D8A403D0010E266E1200740E1A18D8A470
:1008540003D0020E266E12006C0E1A18D8A405D00E
:10086400030E2B6E030E266E1200680E1A18D8A4FF
:1008740005D0030E2B6E040E266E1200660E1A1897
:10088400D8A409D0030E2B6E050E266E000E1C6E26
:10089400000E1B6E1200760E1A18D8A405D0050E91
:1008A4002B6E060E266E1200620E1A18D8A405D0FE
:1008B400030E2B6E070E266E1200B4EC07F0120026
:1008C4001A50281A2650D8A402D0050E01D0030EBF
:1008D4002B6E610E1A18D8A403D0000E256E1200D8
:1008E400620E1A18D8A403D0010E256E1200630EEE
:1008F4001A18D8A403D0020E256E1200640E1A181A
:10090400D8A403D0030E256E1200650E1A18D8A4BD
:1009140003D0040E256E1200B4EC07F012001A5036
:10092400281A1A5068EC07F0276E27AE03D0B4ECEF
:1009340007F01200040E2B6E27C02AF02A3AF00E9C
:100944002A1612001A50281A1A5068EC07F0276E5B
:1009540027AE03D0B4EC07F0120027502A12050E7C
:100964002B6E050E2618D8A41200000E1B24D96E77
:10097400010E1C20DA6E2AC0DFFF1C5005E11B2883
:10098400D8B002D0030E01D0050E2B6E1B4A1C2AD0
:1009940012001A5068EC07F0276E27AE03D0B4ECAF
:1009A40007F01200060E2B6E27C029F0293AF00E2C
:1009B400291612001A5068EC07F0276E27AE03D0F0
:1009C400B4EC07F01200070E2B6E27502912120008
:1009D4003E0E1A18D8A4F7D0000E2B6E29502818F2
:1009E400D8A4EED02650D8A403D0C3EC06F0DBD0B4
:1009F4002604D8A428D02550D8A404D02A50D5EC55
:100A040007F01ED02504D8A404D02A50E1EC07F046
:100A140017D0020E2518D8A404D02A50DDEC07F014
:100A24000FD0030E2518D8A404D02A50D9EC07F00F
:100A340007D0040E2518D8A403D02A50D1EC07F00F
:100A4400C3EC06F0B0D0020E2618D8A428D0255046
:100A5400D8A404D02A50CDEC07F01ED02504D8A485
:100A640004D02A50C9EC07F017D0020E2518D8A4D8
:100A740004D02A50AEEC07F00FD0030E2518D8A4EA
:100A840004D02A50C0EC07F007D0040E2518D8A4CF
:100A940003D02A50C5EC07F0C3EC06F084D0030E53
:100AA4002618D8A412D0000E166EFF0E176E1DC0A5
:100AB40018F01EC019F016501816175019162A509F
:100AC40018101D6E19501E6E6ED0040E2618D8A470
:100AD4000CD0FF0E1D16000E1E162A50176E166A35
:100AE40016501D1217501E125ED0050E2618D8A4DB
:100AF40045D0000E1C6E000E1B6E1C04D8B053D0E3
:100B0400550E146E550E136EAA0E156E3CEC07F0BE
:100B14002A0E146EAA0E136E550E156E3CEC07F0D9
:100B2400550E146E550E136EA00E156E3CEC07F0A8
:100B34001DC010F01EC011F0000E1B24D96E010E52
:100B44001C20DA6EDF50126EE9EC06F0210EE82E5E
:100B5400FED700F01DC010F01EC011F07DEC07F0B0
:100B64002A6E2A509CEC06F0FF0E2A1A2A509CEC9E
:100B740006F01D4A1E2A1B4A1C2ABFD7060E261839
:100B8400D8A40AD01DC010F01EC011F07DEC07F0EF
:100B94002A6E1D4A1E2A07D0070E2618D8A403D091
:100BA4002A50A0EC07F0050E2618D8B412002A50DB
:100BB4009CEC06F0FF0E2A1A2A509CEC06F0120058
:100BC400B4EC07F01200B4EC07F012002B50000A4A
:100BD400D8B420D6010AD8B426D6030AD8B470D61D
:100BE400010AD8B49CD6070AD8B4ACD6010AD8B442
:100BF400D0D6030AD8B4DED6010AD8A41200E8D6A7
:100C04000F6E080E246E0FC023F00001150E276F1F
:100C1400272F0AEF06F00F01838E000123AF27EF81
:100C240006F000010A0E276F272F16EF06F000F0DA
:100C34000F01839E0001150E276F272F1FEF06F06B
:100C440000F000F00F0138EF06F00001030E276FEB
:100C5400272F2AEF06F000F000F00F01839E000119
:100C64001E0E276F272F34EF06F00F0100012347D4
:100C74000001242F0EEF06F00001640E276F272FCA
:100C840041EF06F00F011200DE0EF66E0F0EF76E46
:100C9400000EF86E0900F5CF2CF00900F5CF2DF009
:100CA40002EE00F014EE00F0EE6AE550E150FCE1D3
:100CB400E250FAE101EE00F011EE00F0EE6AE550C8
:100CC400E150FCE1E250FAE100EE1BF0110EEE6A95
:100CD400E806FDE12E902E92000EF86E000124EF3E
:100CE40007F0000E126E000E116E0FB011800FB2DD
:100CF40012880FB4128A0FB6128C0FB812840FBA6E
:100D040011840FBC11860FBE128610B0128010B26F
:100D1400118C10B4118210B6118E10B8118810BA4B
:100D2400118A10BC128210BE128E11C00FF012C0B4
:100D340010F01200136E13C010F0103A0F0E1016BC
:100D440010502C24116E000E2D20126E11C0F6FFCF
:100D540012C0F7FF0800F550BAEC07F013C010F00A
:100D64000F0E101610502C24116E000E2D20126E32
:100D740011C0F6FF12C0F7FF0800F550BAEC07F0F7
:100D840012002550D8A404D0EDEC07F02A6E12000E
:100D94002504D8A404D0EBEC07F02A6E1200020E4E
:100DA4002518D8A404D0E9EC07F02A6E1200030E2B
:100DB4002518D8A404D0E7EC07F02A6E1200040E1C
:100DC4002518D8A41200E5EC07F02A6E1200000ED4
:100DD400CDEC07F01250D5EC07F0FF0EDDEC07F078
:100DE4001050E1EC07F01150D9EC07F0060ED1ECED
:100DF40007F0420EDDEC07F0FF0EDDEC07F0FF0E0E
:100E0400D1EC07F0FF0ECDEC07F012001F502118B3
:100E140004E120502218D8B4F9D7000E2124D96E49
:100E2400020E2220DA6EDF500F6E214A222A040EAF
:100E340022182110D8A404D0000E226E000E216EB8
:100E44000F501200D388D38AD38C000E0F015B6F2E
:100E5400000E0F015D6F000EC26E82689268936887
:100E6400BF0E946E956891EC07F008EC07F00AEC5D
:100E740004F0FBD713C00FF014C010F073EC06F0AD
:100E84000FC013F010C014F0155053EC07F0156E9A
:100E940013C010F014C011F015C012F0E9EC06F004
:100EA4001200106E000E0F6E10B00F8610B20F8875
:100EB40010B40F8410B60F8A10B80F8210BA0F8CBA
:100EC40010BC0F8010BE0F8E0F5012000F6E2F0E2D
:100ED4000F6406D03A0E0F6003D00F50D00F1200EB
:100EE400600E0F6406D0670E0F6003D00F50A90F79
:100EF4001200FF0E1200FF0EDDEC07F01050E1ECC3
:100F040007F01150D9EC07F0400EDDEC07F0EDECE2
:100F140007F0126EFF0EDDEC07F012501200AC98D1
:100F2400AC9CAC8AAB9CAB88AB8EB886AC840F0E01
:100F3400AF6ED08EF28EF28C9D8A1200106E839E5C
:100F4400959E560E02EC06F0050E02EC06F01050CB
:100F540002EC06F0958E12000F6E0F50BF0B800945
:100F6400946E1200000E2B6E3F0EBAEC07F01200C6
:100F74000F6EACA2FED70FC0ADFF12000F6E0F5064
:100F84008009956E12000F6E0FC096FF12000F6E4F
:100F94000FC093FF12000F6E0FC092FF12000F6E6E
:100FA4000FC084FF12000F6E0FC080FF12000F6E7F
:100FB4000FC083FF12000F6E0FC082FF12000F6E6E
:100FC4000FC081FF1200845012008350120082501F
:0C0FD40012008150120080501200010831
:020000040020DA
:08000000FFFFFFFFFFFFFFFF00
:020000040030CA
:0E00000000285F3CFF5185FF0FC00FE00F404E
:00000001FF
