:0400000057EF00F0C6
:100008003082FACF1AF0FBCF1BF0E9CF1CF0EACF11
:100018001DF0E1CF1EF0E2CF1FF0D9CF20F0DACFEC
:1000280021F0F3CF22F0F4CF23F0F6CF24F0F7CF6E
:1000380025F0F8CF26F0F5CF27F0ABA203D0AB928E
:10004800AB98AB889EAA11D01850010D010EF3246D
:10005800D96E000EF420DA6EAECFDFFF182A100E2C
:100068001818D8A402D0000E186E27C0F5FF26C0B5
:10007800F8FF25C0F7FF24C0F6FF23C0F4FF22C015
:10008800F3FF21C0DAFF20C0D9FF1FC0E2FF1EC066
:10009800E1FF1DC0EAFF1CC0E9FF1BC0FBFF1AC03F
:0A00A800FAFF309211006FEF05F02F
:1008000000303132333435363738396162636465EC
:030810006600007F
:100814002D6E22D13C0E2D18D8A41200010E176E95
:10082400000E146E12002D50141A020E176E720E62
:100834002D18D8A403D0000E126E1200770E2D18B6
:10084400D8A403D0010E126E1200740E2D18D8A471
:1008540003D0020E126E1200E1EC05F012002D50CE
:10086400141A1250D8A402D0050E01D0030E176E2C
:10087400610E2D18D8A403D0000E116E1200620E62
:100884002D18D8A403D0010E116E1200630E2D187A
:10089400D8A403D0020E116E1200640E2D18D8A431
:1008A40003D0030E116E1200650E2D18D8A403D0C8
:1008B400040E116E1200E1EC05F012002D50141A12
:1008C4002D50B7EC05F0136E13AE03D0E1EC05F038
:1008D4001200040E176E13C016F0163AF00E161618
:1008E40012002D50141A2D50B7EC05F0136E13AEF0
:1008F40003D0E1EC05F01200050E176E135016122A
:1009040012002D50B7EC05F0136E13AE03D0E1ECDA
:1009140005F01200060E176E13C015F0153AF00E0E
:10092400151612002D50B7EC05F0136E13AE03D05C
:10093400E1EC05F01200070E176E135015121200A9
:100944003E0E2D18D8A485D0000E176E155014181D
:10095400D8A47CD01204D8A426D01150D8A404D092
:1009640016500DEC06F048D01104D8A404D016504B
:1009740009EC06F041D0020E1118D8A404D0165088
:1009840005EC06F039D0030E1118D8A404D0165083
:1009940001EC06F031D0040E1118D8A42DD0165055
:1009A400FDEC05F029D0020E1218D8A425D0115060
:1009B400D8A404D01650F9EC05F01ED01104D8A424
:1009C40004D01650F5EC05F017D0020E1118D8A477
:1009D40004D01650DBEC05F00FD0030E1118D8A488
:1009E40004D01650F1EC05F007D0040E1118D8A469
:1009F40003D01650EDEC05F01150D8A403D019EC37
:100A040006F01AD01104D8A403D017EC06F014D0C1
:100A1400020E1118D8A403D015EC06F00DD0030E65
:100A24001118D8A403D013EC06F006D0040E111844
:100A3400D8A403D011EC06F0166E165048EC05F05D
:100A4400FF0E161A165048EC05F01200E1EC05F002
:100A54001200E1EC05F012001750000AD8B4DAD6FF
:100A6400010AD8B4E0D6030AD8B4F9D6010AD8B436
:100A740025D7070AD8B435D7010AD8B442D7030A10
:100A8400D8B450D7010AD8A412005AD72C6E2CC05F
:100A940029F0293A0F0E291629502E242A6E000E09
:100AA4002F202B6E2AC0F6FF2BC0F7FF0800F5504D
:100AB400E7EC05F02CC029F00F0E291629502E243E
:100AC4002A6E000E2F202B6E2AC0F6FF2BC0F7FFD4
:100AD4000800F550E7EC05F01200360EF66E0C0E29
:100AE400F76E000EF86E0900F5CF2EF00900F5CF71
:100AF4002FF000EE01F0190EEE6AE806FDE13090E9
:100B04003092000EF86E000188EF05F0D388D38A86
:100B1400D38C000E0F015B6F000E0F015D6F000E92
:100B2400C26E826892689368BF0E946E9568CCEC2E
:100B340005F0A0EC05F00AEC04F0FBD718501918E6
:100B4400D8B4FCD71950010D010EF324D96E000E50
:100B5400F420DA6EDF50286E192A100E1918D8A462
:100B640002D0000E196E28501200286E2F0E286431
:100B740006D03A0E286003D02850D00F1200600E21
:100B8400286406D0670E286003D02850A90F1200ED
:100B9400FF0E1200AC98AC9CAC8AAB9CAB88AB8EBD
:100BA400B886AC84070EAF6ED08EF28EF28C9D8A1E
:100BB4001200286E2850BF0B8009946E1200000E9C
:100BC400176E3F0EE7EC05F01200286EACA2FED7BC
:100BD40028C0ADFF1200286E28C096FF1200286EB0
:100BE40028C095FF1200286E28C093FF1200286EBB
:100BF40028C092FF1200286E28C084FF1200286EBD
:100C040028C083FF1200286E28C082FF1200286EBD
:100C140028C081FF1200286E28C080FF1200845073
:100C24001200835012008250120081501200805032
:040C340012000108A1
:020000040020DA
:08000000FFFFFFFFFFFFFFFF00
:020000040030CA
:0E00000000285F3CFF5185FF0FC00FE00F404E
:00000001FF
