:0400000059EF00F0C4
:100008002E82FACF01F0FBCF02F0E9CF03F0EACF5E
:1000180004F0E1CF05F0E2CF06F0D9CF07F0DACF50
:1000280008F0F3CF09F0F4CF0AF0F6CF0BF0F7CFD2
:100038000CF0F8CF0DF0F5CF0EF0ABA203D0AB92D9
:10004800AB98AB889EAA13D0000E1F24D96E020E5F
:100058002020DA6EAECFDFFF1F4A202A040E2018B8
:100068001F10D8A404D0000E206E000E1F6E0EC004
:10007800F5FF0DC0F8FF0CC0F7FF0BC0F6FF0AC074
:10008800F4FF09C0F3FF08C0DAFF07C0D9FF06C0B4
:10009800E2FF05C0E1FF04C0EAFF03C0E9FF02C0B8
:0E00A800FBFF01C0FAFF2E92110057EF06F089
:1008000000303132333435363738396162636465EC
:030810006600007F
:100814001A6EEDD13C0E1A18D8A41200010E2B6EDC
:10082400000E286E12001A50281A020E2B6E720E39
:100834001A18D8A403D0000E266E1200770E1A18C8
:10084400D8A403D0010E266E1200740E1A18D8A470
:1008540003D0020E266E12006C0E1A18D8A405D00E
:10086400030E2B6E030E266E1200680E1A18D8A4FF
:1008740005D0030E2B6E040E266E1200660E1A1897
:10088400D8A409D0030E2B6E050E266E000E1C6E26
:10089400000E1B6E1200760E1A18D8A405D0050E91
:1008A4002B6E060E266E1200620E1A18D8A405D0FE
:1008B400030E2B6E070E266E1200700E1A18D8A4A3
:1008C40005D0030E2B6E080E266E1200D3EC07F033
:1008D40012001A50281A2650D8A402D0050E01D0AE
:1008E400030E2B6E610E1A18D8A403D0000E256EC9
:1008F4001200620E1A18D8A403D0010E256E12003D
:10090400630E1A18D8A403D0020E256E1200640ECA
:100914001A18D8A403D0030E256E1200650E1A18F7
:10092400D8A403D0040E256E1200D3EC07F01200F5
:100934001A50281A1A5079EC07F0276E27AE03D004
:10094400D3EC07F01200040E2B6E27C02AF02A3ACB
:10095400F00E2A1612001A50281A1A5079EC07F0D1
:10096400276E27AE03D0D3EC07F0120027502A12CB
:10097400050E2B6E050E2618D8A41200000E1B249B
:10098400D96E010E1C20DA6E2AC0DFFF1C5005E16F
:100994001B28D8B002D0030E01D0050E2B6E1B4AC3
:1009A4001C2A12001A5079EC07F0276E27AE03D0E8
:1009B400D3EC07F01200060E2B6E27C029F0293A5B
:1009C400F00E291612001A5079EC07F0276E27AEA4
:1009D40003D0D3EC07F01200070E2B6E2750291218
:1009E40012003E0E1A18D8A4FFD0000E2B6E295008
:1009F4002818D8A4F6D02650D8A403D0D4EC06F0F6
:100A0400E3D02604D8A428D02550D8A404D02A5052
:100A1400F4EC07F01ED02504D8A404D02A5000EC2E
:100A240008F017D0020E2518D8A404D02A50FCECE4
:100A340007F00FD0030E2518D8A404D02A50F8ECE0
:100A440007F007D0040E2518D8A403D02A50F0ECE0
:100A540007F0D4EC06F0B8D0020E2618D8A428D09B
:100A64002550D8A404D02A50ECEC07F01ED025045D
:100A7400D8A404D02A50E8EC07F017D0020E2518A9
:100A8400D8A404D02A50CDEC07F00FD0030E2518BB
:100A9400D8A404D02A50DFEC07F007D0040E2518A0
:100AA400D8A403D02A50E4EC07F0D4EC06F08CD0A0
:100AB400030E2618D8A412D0000E166EFF0E176E61
:100AC4001DC018F01EC019F016501816175019162C
:100AD4002A5018101D6E19501E6E76D0040E26185A
:100AE400D8A40CD0FF0E1D16000E1E162A50176E29
:100AF400166A16501D1217501E1266D0050E2618BF
:100B0400D8A445D0000E1C6E000E1B6E1C04D8B079
:100B14005BD0550E146E550E136EAA0E156E4DEC69
:100B240007F02A0E146EAA0E136E550E156E4DECB8
:100B340007F0550E146E550E136EA00E156E4DEC87
:100B440007F01DC010F01EC011F0000E1B24D96E5A
:100B5400010E1C20DA6EDF50126EFAEC06F0210E44
:100B6400E82EFED700F01DC010F01EC011F08EEC70
:100B740007F02A6E2A50ADEC06F0FF0E2A1A2A500E
:100B8400ADEC06F01D4A1E2A1B4A1C2ABFD7060ECE
:100B94002618D8A40AD01DC010F01EC011F08EEC87
:100BA40007F02A6E1D4A1E2A0FD0070E2618D8A455
:100BB40004D02A50BFEC07F007D0080E2618D8A49A
:100BC40003D02A50B1EC07F0050E2618D8B4120051
:100BD4002A50ADEC06F0FF0E2A1A2A50ADEC06F0AE
:100BE4001200D3EC07F01200D3EC07F012002B50E4
:100BF400000AD8B40FD6010AD8B415D6030AD8B45B
:100C040068D6010AD8B494D6070AD8B4A4D6010A7F
:100C1400D8B4C8D6030AD8B4D6D6010AD8A41200C8
:100C2400E0D60F6E080E246E0FC023F00001150EDF
:100C3400276F272F1BEF06F00F01838E000123AFD0
:100C440038EF06F000010A0E276F272F27EF06F072
:100C540000F00F01839E0001150E276F272F30EF40
:100C640006F000F000F00F0149EF06F00001030E5A
:100C7400276F272F3BEF06F000F000F00F01839E53
:100C840000011E0E276F272F45EF06F00F0100010C
:100C940023470001242F1FEF06F00001640E276F85
:100CA400272F52EF06F00F0112001C0EF66E100EE5
:100CB400F76E000EF86E0900F5CF2CF00900F5CFA1
:100CC4002DF002EE00F014EE00F0EE6AE550E15073
:100CD400FCE1E250FAE101EE00F011EE00F0EE6A00
:100CE400E550E150FCE1E250FAE100EE1BF0110E98
:100CF400EE6AE806FDE12E902E92000EF86E0001D9
:100D040035EF07F0000E126E000E116E0FB0118059
:100D14000FB212880FB4128A0FB6128C0FB8128455
:100D24000FBA11840FBC11860FBE128610B0128048
:100D340010B2118C10B4118210B6118E10B8118833
:100D440010BA118A10BC128210BE128E11C00FF09C
:100D540012C010F01200136E13C010F0103A0F0EF0
:100D6400101610502C24116E000E2D20126E11C07E
:100D7400F6FF12C0F7FF0800F550D9EC07F013C0D6
:100D840010F00F0E101610502C24116E000E2D2092
:100D9400126E11C0F6FF12C0F7FF0800F550D9EC2F
:100DA40007F012002550D8A404D00CEC08F02A6EE9
:100DB40012002504D8A404D00AEC08F02A6E12000C
:100DC400020E2518D8A404D008EC08F02A6E1200EC
:100DD400030E2518D8A404D006EC08F02A6E1200DD
:100DE400040E2518D8A4120004EC08F02A6E120090
:100DF400000EECEC07F01250F4EC07F0FF0EFCECE4
:100E040007F0105000EC08F01150F8EC07F0060E53
:100E1400F0EC07F0420EFCEC07F0FF0EFCEC07F0E0
:100E2400FF0EF0EC07F0FF0EECEC07F012001F5081
:100E3400211804E120502218D8B4F9D7000E212437
:100E4400D96E020E2220DA6EDF500F6E214A222A5A
:100E5400040E22182110D8A404D0000E226E000E15
:100E6400216E0F501200D388D38AD38C000E0F0149
:100E74005B6F000E0F015D6F000EC26E8268926898
:100E84009368BF0E946E9568A2EC07F019EC07F016
:100E94000AEC04F0FBD713C00FF014C010F084EC7C
:100EA40006F00FC013F010C014F0155064EC07F0F6
:100EB400156E13C010F014C011F015C012F0FAEC46
:100EC40006F01200106E000E0F6E10B00F8610B2F6
:100ED4000F8810B40F8410B60F8A10B80F8210BA9E
:100EE4000F8C10BC0F8010BE0F8E0F5012000F6EAF
:100EF4002F0E0F6406D03A0E0F6003D00F50D00FA0
:100F04001200600E0F6406D0670E0F6003D00F50FE
:100F1400A90F1200FF0E1200FF0EFCEC07F0105098
:100F240000EC08F01150F8EC07F0400EFCEC07F070
:100F34000CEC08F0126EFF0EFCEC07F012501200DD
:100F4400AC98AC9CAC8AAB9CAB88AB8EB886AC84BA
:100F54000F0EAF6ED08EF28EF28C9D8A1200106E40
:100F6400839E959E560E13EC06F0060E13EC06F0C7
:100F7400105013EC06F0958E1200106E839E959E11
:100F8400560E13EC06F0050E13EC06F0105013EC9D
:100F940006F0958E12000F6E0F50BF0B8009946EF1
:100FA4001200000E2B6E3F0ED9EC07F012000F6EEC
:100FB400ACA2FED70FC0ADFF12000F6E0F50800918
:100FC400956E12000F6E0FC096FF12000F6E0FC0C9
:100FD40093FF12000F6E0FC092FF12000F6E0FC02E
:100FE40084FF12000F6E0FC080FF12000F6E0FC03F
:100FF40083FF12000F6E0FC082FF12000F6E0FC02E
:1010040081FF12008450120083501200825012009B
:0A1014008150120080501200010804
:020000040020DA
:08000000FFFFFFFFFFFFFFFF00
:020000040030CA
:0E00000000285F3CFF5185FF0FC00FE00F404E
:00000001FF
