:0400000059EF00F0C4
:100008002C82FACF01F0FBCF02F0E9CF03F0EACF60
:1000180004F0E1CF05F0E2CF06F0D9CF07F0DACF50
:1000280008F0F3CF09F0F4CF0AF0F6CF0BF0F7CFD2
:100038000CF0F8CF0DF0F5CF0EF0ABA203D0AB92D9
:10004800AB98AB889EAA13D0000E1F24D96E020E5F
:100058002020DA6EAECFDFFF1F4A202A040E2018B8
:100068001F10D8A404D0000E206E000E1F6E0EC004
:10007800F5FF0DC0F8FF0CC0F7FF0BC0F6FF0AC074
:10008800F4FF09C0F3FF08C0DAFF07C0D9FF06C0B4
:10009800E2FF05C0E1FF04C0EAFF03C0E9FF02C0B8
:0E00A800FBFF01C0FAFF2C921100F4EF05F0EF
:1008000000303132333435363738396162636465EC
:030810006600007F
:100814001A6ECED13C0E1A18D8A41200010E296EFD
:10082400000E266E12001A50261A020E296E720E3F
:100834001A18D8A403D0000E246E1200770E1A18CA
:10084400D8A403D0010E246E1200740E1A18D8A472
:1008540003D0020E246E12006C0E1A18D8A405D010
:10086400030E296E030E246E1200680E1A18D8A403
:1008740005D0030E296E040E246E1200660E1A189B
:10088400D8A409D0030E296E050E246E000E1C6E2A
:10089400000E1B6E1200760E1A18D8A405D0050E91
:1008A400296E060E246E120054EC07F012001A5042
:1008B400261A2450D8A402D0050E01D0030E296EA6
:1008C400610E1A18D8A403D0000E236E1200620E13
:1008D4001A18D8A403D0010E236E1200630E1A183E
:1008E400D8A403D0020E236E1200640E1A18D8A4E2
:1008F40003D0030E236E1200650E1A18D8A403D079
:10090400040E236E120054EC07F012001A50261A3B
:100914001A5016EC07F0256E25AE03D054EC07F000
:100924001200040E296E25C028F0283AF00E28166D
:1009340012001A50261A1A5016EC07F0256E25AE2E
:1009440003D054EC07F0120025502812050E296E2E
:10095400050E2418D8A41200000E1B24D96E010E13
:100964001C20DA6E28C0DFFF1C5005E11B28D8B01C
:1009740002D0030E01D0050E296E1B4A1C2A120058
:100984001A5016EC07F0256E25AE03D054EC07F090
:100994001200060E296E25C027F0273AF00E2716FE
:1009A40012001A5016EC07F0256E25AE03D054EC55
:1009B40007F01200070E296E2550271212003E0E72
:1009C4001A18D8A4F2D0000E296E27502618D8A4DD
:1009D400E9D02450D8A403D071EC06F0D6D0240476
:1009E400D8A428D02350D8A404D0285074EC07F0FD
:1009F4001ED02304D8A404D0285080EC07F017D0CC
:100A0400020E2318D8A404D028507CEC07F00FD091
:100A1400030E2318D8A404D0285078EC07F007D08C
:100A2400040E2318D8A403D0285070EC07F071ECFE
:100A340006F0ABD0020E2418D8A428D02350D8A492
:100A440004D028506CEC07F01ED02304D8A404D0A2
:100A5400285068EC07F017D0020E2318D8A404D04D
:100A640028504EEC07F00FD0030E2318D8A404D05E
:100A7400285064EC07F007D0040E2318D8A403D040
:100A8400285060EC07F071EC06F07FD0030E2418B8
:100A9400D8A411D0000E166EFF0E176E1DC018F0EC
:100AA4001EC019F016501816175019162850181091
:100AB4001D6E195012D0040E2418D8A410D028503A
:100AC400176E166AFF0E1D14186E000E1E14196E92
:100AD400165018101D6E175019101E6E56D0050EA4
:100AE4002418D8A445D0000E1C6E000E1B6E1C04E6
:100AF400D8B04BD0550E146E550E136EAA0E156E4B
:100B0400EAEC06F02A0E146EAA0E136E550E156E3C
:100B1400EAEC06F0550E146E550E136EA00E156E0B
:100B2400EAEC06F01DC010F01EC011F0000E1B24EC
:100B3400D96E010E1C20DA6EDF50126E97EC06F0AF
:100B4400420EE82EFED700D01DC010F01EC011F0DA
:100B54002BEC07F0286E28504AEC06F0FF0E281AFA
:100B640028504AEC06F01D4A1E2A1B4A1C2ABFD7ED
:100B7400060E2418D8A409D01DC010F01EC011F010
:100B84002BEC07F0286E1D4A1E2A050E2418D8B433
:100B9400120028504AEC06F0FF0E281A28504AEC9E
:100BA40006F0120054EC07F0120054EC07F01200A7
:100BB4002950000AD8B42ED6010AD8B434D6030A70
:100BC400D8B475D6010AD8B4A1D6070AD8B4B1D618
:100BD400010AD8B4D5D6030AD8B4E3D6010AD8A4F6
:100BE4001200EDD61C0EF66E0F0EF76E000EF86EA8
:100BF4000900F5CF2AF00900F5CF2BF002EE00F042
:100C040014EE00F0EE6AE550E150FCE1E250FAE146
:100C140001EE00F011EE00F0EE6AE550E150FCE167
:100C2400E250FAE100EE1BF00F0EEE6AE806FDE179
:100C34002C902C92000EF86E0001D2EF06F0000EFC
:100C4400126E000E116E0FB011800FB212880FB425
:100C5400128A0FB6128C0FB812840FBA11840FBC0B
:100C640011860FBE128610B0128010B2118C10B40F
:100C7400118210B6118E10B8118810BA118A10BCE6
:100C8400128210BE128E11C00FF012C010F01200AA
:100C9400136E13C010F0103A0F0E101610502A24C1
:100CA400116E000E2B20126E11C0F6FF12C0F7FF5A
:100CB4000800F5505AEC07F013C010F00F0E101690
:100CC40010502A24116E000E2B20126E11C0F6FF54
:100CD40012C0F7FF0800F5505AEC07F01200235039
:100CE400D8A404D08CEC07F0286E12002304D8A4F6
:100CF40004D08AEC07F0286E1200020E2318D8A440
:100D040004D088EC07F0286E1200030E2318D8A430
:100D140004D086EC07F0286E1200040E2318D8A421
:100D2400120084EC07F0286E1200000E6CEC07F041
:100D3400125074EC07F0FF0E7CEC07F0105080ECBE
:100D440007F0115078EC07F0060E70EC07F0420E35
:100D54007CEC07F0FF0E7CEC07F0FF0E70EC07F064
:100D6400FF0E6CEC07F012001F50211804E1205014
:100D74002218D8B4F9D7000E2124D96E020E2220ED
:100D8400DA6EDF500F6E214A222A040E2218211037
:100D9400D8A404D0000E226E000E216E0F50120053
:100DA400D388D38AD38C000E0F015B6F000E0F0122
:100DB4005D6F000EC26E826892689368BF0E946E77
:100DC40095683FEC07F0B6EC06F00AEC04F0FBD7AC
:100DD40013C00FF014C010F021EC06F00FC013F094
:100DE40010C014F0155001EC07F0156E13C010F08C
:100DF40014C011F015C012F097EC06F01200106E3A
:100E0400000E0F6E10B00F8610B20F8810B40F844E
:100E140010B60F8A10B80F8210BA0F8C10BC0F8056
:100E240010BE0F8E0F5012000F6E2F0E0F6406D0DF
:100E34003A0E0F6003D00F50D00F1200600E0F64F3
:100E440006D0670E0F6003D00F50A90F1200FF0EDB
:100E54001200FF0E7CEC07F0105080EC07F01150EC
:100E640078EC07F0400E7CEC07F08CEC07F0126E87
:100E7400FF0E7CEC07F012501200AC98AC9CAC8ACC
:100E8400AB9CAB88AB8EB886AC840F0EAF6ED08EA5
:100E9400F28EF28C9D8A12000F6E0F50BF0B8009E8
:100EA400946E1200000E296E3F0E5AEC07F01200E9
:100EB4000F6EACA2FED70FC0ADFF12000F6E0FC0B5
:100EC40096FF12000F6E0FC095FF12000F6E0FC039
:100ED40093FF12000F6E0FC092FF12000F6E0FC02F
:100EE40084FF12000F6E0FC080FF12000F6E0FC040
:100EF40083FF12000F6E0FC082FF12000F6E0FC02F
:100F040081FF12008450120083501200825012009C
:0A0F14008150120080501200010805
:020000040020DA
:08000000FFFFFFFFFFFFFFFF00
:020000040030CA
:0E00000000285F3CFF5185FF0FC00FE00F404E
:00000001FF
